{
  "contractName": "Greeter",
  "abi": [
    {
      "inputs": [
        {
          "name": "_greeting",
          "type": "string"
        }
      ],
      "payable": false,
      "stateMutability": "nonpayable",
      "type": "constructor"
    },
    {
      "constant": true,
      "inputs": [],
      "name": "greet",
      "outputs": [
        {
          "name": "",
          "type": "string"
        }
      ],
      "payable": false,
      "stateMutability": "view",
      "type": "function"
    },
    {
      "constant": false,
      "inputs": [
        {
          "name": "_newgreeting",
          "type": "string"
        }
      ],
      "name": "setGreeting",
      "outputs": [],
      "payable": false,
      "stateMutability": "nonpayable",
      "type": "function"
    },
    {
      "constant": false,
      "inputs": [],
      "name": "kill",
      "outputs": [],
      "payable": false,
      "stateMutability": "nonpayable",
      "type": "function"
    }
  ],
  "bytecode": "0x6060604052341561000f57600080fd5b6040516104d03803806104d083398101604052808051820191905050336000806101000a81548173ffffffffffffffffffffffffffffffffffffffff021916908373ffffffffffffffffffffffffffffffffffffffff1602179055508060019080519060200190610081929190610088565b505061012d565b828054600181600116156101000203166002900490600052602060002090601f016020900481019282601f106100c957805160ff19168380011785556100f7565b828001600101855582156100f7579182015b828111156100f65782518255916020019190600101906100db565b5b5090506101049190610108565b5090565b61012a91905b8082111561012657600081600090555060010161010e565b5090565b90565b6103948061013c6000396000f300606060405260043610610057576000357c0100000000000000000000000000000000000000000000000000000000900463ffffffff16806341c0e1b51461005c578063a413686214610071578063cfae3217146100ce575b600080fd5b341561006757600080fd5b61006f61015c565b005b341561007c57600080fd5b6100cc600480803590602001908201803590602001908080601f016020809104026020016040519081016040528093929190818152602001838380828437820191505050505050919050506101ed565b005b34156100d957600080fd5b6100e1610207565b6040518080602001828103825283818151815260200191508051906020019080838360005b83811015610121578082015181840152602081019050610106565b50505050905090810190601f16801561014e5780820380516001836020036101000a031916815260200191505b509250505060405180910390f35b6000809054906101000a900473ffffffffffffffffffffffffffffffffffffffff1673ffffffffffffffffffffffffffffffffffffffff163373ffffffffffffffffffffffffffffffffffffffff1614156101eb576000809054906101000a900473ffffffffffffffffffffffffffffffffffffffff1673ffffffffffffffffffffffffffffffffffffffff16ff5b565b80600190805190602001906102039291906102af565b5050565b61020f61032f565b60018054600181600116156101000203166002900480601f0160208091040260200160405190810160405280929190818152602001828054600181600116156101000203166002900480156102a55780601f1061027a576101008083540402835291602001916102a5565b820191906000526020600020905b81548152906001019060200180831161028857829003601f168201915b5050505050905090565b828054600181600116156101000203166002900490600052602060002090601f016020900481019282601f106102f057805160ff191683800117855561031e565b8280016001018555821561031e579182015b8281111561031d578251825591602001919060010190610302565b5b50905061032b9190610343565b5090565b602060405190810160405280600081525090565b61036591905b80821115610361576000816000905550600101610349565b5090565b905600a165627a7a72305820aef524dd5172f1339a98e6ce415215265068990292501d365477c4745e0a3ef60029",
  "source": "pragma solidity ^0.4.17;\r\n\r\ncontract Greeter         \r\n{\r\n    address creator;     \r\n    string greeting;     \r\n\r\n    function Greeter(string _greeting) public   \r\n    {\r\n        creator = msg.sender;\r\n        greeting = _greeting;\r\n    }\r\n    \r\n\r\n    function greet() public constant returns (string)           \r\n    {\r\n        return greeting;\r\n    }\r\n    \r\n    function setGreeting(string _newgreeting) public\r\n    {\r\n        greeting = _newgreeting;\r\n    }\r\n    \r\n     /**********\r\n     Standard kill() function to recover funds \r\n     **********/\r\n    \r\n    function kill()public\r\n    { \r\n        if (msg.sender == creator)\r\n            suicide(creator);  // kills this contract and sends remaining funds back to creator\r\n    }\r\n\r\n}",
  "sourcePath": "/usr/work/HelloWorld/contracts/Greeter.sol",
  "compiler": {
    "name": "solc",
    "version": "0.4.21+commit.dfe3193c.Emscripten.clang"
  },
  "schemaVersion": "2.0.0",
  "updatedAt": "2018-04-03T11:44:49.262Z"
}